{
  "_format": "hh-sol-artifact-1",
  "contractName": "Domains",
  "sourceName": "contracts/Domain.sol",
  "abi": [
    {
      "inputs": [
        {
          "internalType": "string",
          "name": "_tld",
          "type": "string"
        }
      ],
      "stateMutability": "payable",
      "type": "constructor"
    },
    {
      "inputs": [],
      "name": "AlreadyRegistered",
      "type": "error"
    },
    {
      "inputs": [
        {
          "internalType": "string",
          "name": "name",
          "type": "string"
        }
      ],
      "name": "InvalidName",
      "type": "error"
    },
    {
      "inputs": [],
      "name": "Unauthorized",
      "type": "error"
    },
    {
      "anonymous": false,
      "inputs": [
        {
          "indexed": true,
          "internalType": "address",
          "name": "owner",
          "type": "address"
        },
        {
          "indexed": true,
          "internalType": "address",
          "name": "approved",
          "type": "address"
        },
        {
          "indexed": true,
          "internalType": "uint256",
          "name": "tokenId",
          "type": "uint256"
        }
      ],
      "name": "Approval",
      "type": "event"
    },
    {
      "anonymous": false,
      "inputs": [
        {
          "indexed": true,
          "internalType": "address",
          "name": "owner",
          "type": "address"
        },
        {
          "indexed": true,
          "internalType": "address",
          "name": "operator",
          "type": "address"
        },
        {
          "indexed": false,
          "internalType": "bool",
          "name": "approved",
          "type": "bool"
        }
      ],
      "name": "ApprovalForAll",
      "type": "event"
    },
    {
      "anonymous": false,
      "inputs": [
        {
          "indexed": true,
          "internalType": "address",
          "name": "from",
          "type": "address"
        },
        {
          "indexed": true,
          "internalType": "address",
          "name": "to",
          "type": "address"
        },
        {
          "indexed": true,
          "internalType": "uint256",
          "name": "tokenId",
          "type": "uint256"
        }
      ],
      "name": "Transfer",
      "type": "event"
    },
    {
      "inputs": [
        {
          "internalType": "address",
          "name": "to",
          "type": "address"
        },
        {
          "internalType": "uint256",
          "name": "tokenId",
          "type": "uint256"
        }
      ],
      "name": "approve",
      "outputs": [],
      "stateMutability": "nonpayable",
      "type": "function"
    },
    {
      "inputs": [
        {
          "internalType": "address",
          "name": "owner",
          "type": "address"
        }
      ],
      "name": "balanceOf",
      "outputs": [
        {
          "internalType": "uint256",
          "name": "",
          "type": "uint256"
        }
      ],
      "stateMutability": "view",
      "type": "function"
    },
    {
      "inputs": [
        {
          "internalType": "string",
          "name": "",
          "type": "string"
        }
      ],
      "name": "domainList",
      "outputs": [
        {
          "internalType": "address",
          "name": "",
          "type": "address"
        }
      ],
      "stateMutability": "view",
      "type": "function"
    },
    {
      "inputs": [],
      "name": "getAllNames",
      "outputs": [
        {
          "internalType": "string[]",
          "name": "",
          "type": "string[]"
        }
      ],
      "stateMutability": "view",
      "type": "function"
    },
    {
      "inputs": [
        {
          "internalType": "uint256",
          "name": "tokenId",
          "type": "uint256"
        }
      ],
      "name": "getApproved",
      "outputs": [
        {
          "internalType": "address",
          "name": "",
          "type": "address"
        }
      ],
      "stateMutability": "view",
      "type": "function"
    },
    {
      "inputs": [
        {
          "internalType": "string",
          "name": "name",
          "type": "string"
        }
      ],
      "name": "getOwner",
      "outputs": [
        {
          "internalType": "address",
          "name": "",
          "type": "address"
        }
      ],
      "stateMutability": "view",
      "type": "function"
    },
    {
      "inputs": [
        {
          "internalType": "string",
          "name": "name",
          "type": "string"
        }
      ],
      "name": "getRecord",
      "outputs": [
        {
          "internalType": "string",
          "name": "",
          "type": "string"
        }
      ],
      "stateMutability": "view",
      "type": "function"
    },
    {
      "inputs": [
        {
          "internalType": "address",
          "name": "owner",
          "type": "address"
        },
        {
          "internalType": "address",
          "name": "operator",
          "type": "address"
        }
      ],
      "name": "isApprovedForAll",
      "outputs": [
        {
          "internalType": "bool",
          "name": "",
          "type": "bool"
        }
      ],
      "stateMutability": "view",
      "type": "function"
    },
    {
      "inputs": [],
      "name": "isOwner",
      "outputs": [
        {
          "internalType": "bool",
          "name": "",
          "type": "bool"
        }
      ],
      "stateMutability": "view",
      "type": "function"
    },
    {
      "inputs": [],
      "name": "name",
      "outputs": [
        {
          "internalType": "string",
          "name": "",
          "type": "string"
        }
      ],
      "stateMutability": "view",
      "type": "function"
    },
    {
      "inputs": [
        {
          "internalType": "uint256",
          "name": "",
          "type": "uint256"
        }
      ],
      "name": "names",
      "outputs": [
        {
          "internalType": "string",
          "name": "",
          "type": "string"
        }
      ],
      "stateMutability": "view",
      "type": "function"
    },
    {
      "inputs": [],
      "name": "owner",
      "outputs": [
        {
          "internalType": "address payable",
          "name": "",
          "type": "address"
        }
      ],
      "stateMutability": "view",
      "type": "function"
    },
    {
      "inputs": [
        {
          "internalType": "uint256",
          "name": "tokenId",
          "type": "uint256"
        }
      ],
      "name": "ownerOf",
      "outputs": [
        {
          "internalType": "address",
          "name": "",
          "type": "address"
        }
      ],
      "stateMutability": "view",
      "type": "function"
    },
    {
      "inputs": [
        {
          "internalType": "string",
          "name": "name",
          "type": "string"
        }
      ],
      "name": "price",
      "outputs": [
        {
          "internalType": "uint256",
          "name": "",
          "type": "uint256"
        }
      ],
      "stateMutability": "pure",
      "type": "function"
    },
    {
      "inputs": [
        {
          "internalType": "string",
          "name": "",
          "type": "string"
        }
      ],
      "name": "records",
      "outputs": [
        {
          "internalType": "string",
          "name": "",
          "type": "string"
        }
      ],
      "stateMutability": "view",
      "type": "function"
    },
    {
      "inputs": [
        {
          "internalType": "string",
          "name": "name",
          "type": "string"
        }
      ],
      "name": "registerDomain",
      "outputs": [],
      "stateMutability": "payable",
      "type": "function"
    },
    {
      "inputs": [
        {
          "internalType": "address",
          "name": "from",
          "type": "address"
        },
        {
          "internalType": "address",
          "name": "to",
          "type": "address"
        },
        {
          "internalType": "uint256",
          "name": "tokenId",
          "type": "uint256"
        }
      ],
      "name": "safeTransferFrom",
      "outputs": [],
      "stateMutability": "nonpayable",
      "type": "function"
    },
    {
      "inputs": [
        {
          "internalType": "address",
          "name": "from",
          "type": "address"
        },
        {
          "internalType": "address",
          "name": "to",
          "type": "address"
        },
        {
          "internalType": "uint256",
          "name": "tokenId",
          "type": "uint256"
        },
        {
          "internalType": "bytes",
          "name": "_data",
          "type": "bytes"
        }
      ],
      "name": "safeTransferFrom",
      "outputs": [],
      "stateMutability": "nonpayable",
      "type": "function"
    },
    {
      "inputs": [
        {
          "internalType": "address",
          "name": "operator",
          "type": "address"
        },
        {
          "internalType": "bool",
          "name": "approved",
          "type": "bool"
        }
      ],
      "name": "setApprovalForAll",
      "outputs": [],
      "stateMutability": "nonpayable",
      "type": "function"
    },
    {
      "inputs": [
        {
          "internalType": "string",
          "name": "name",
          "type": "string"
        },
        {
          "internalType": "string",
          "name": "record",
          "type": "string"
        }
      ],
      "name": "setRecord",
      "outputs": [],
      "stateMutability": "nonpayable",
      "type": "function"
    },
    {
      "inputs": [
        {
          "internalType": "bytes4",
          "name": "interfaceId",
          "type": "bytes4"
        }
      ],
      "name": "supportsInterface",
      "outputs": [
        {
          "internalType": "bool",
          "name": "",
          "type": "bool"
        }
      ],
      "stateMutability": "view",
      "type": "function"
    },
    {
      "inputs": [],
      "name": "symbol",
      "outputs": [
        {
          "internalType": "string",
          "name": "",
          "type": "string"
        }
      ],
      "stateMutability": "view",
      "type": "function"
    },
    {
      "inputs": [],
      "name": "tld",
      "outputs": [
        {
          "internalType": "string",
          "name": "",
          "type": "string"
        }
      ],
      "stateMutability": "view",
      "type": "function"
    },
    {
      "inputs": [
        {
          "internalType": "uint256",
          "name": "tokenId",
          "type": "uint256"
        }
      ],
      "name": "tokenURI",
      "outputs": [
        {
          "internalType": "string",
          "name": "",
          "type": "string"
        }
      ],
      "stateMutability": "view",
      "type": "function"
    },
    {
      "inputs": [
        {
          "internalType": "address",
          "name": "from",
          "type": "address"
        },
        {
          "internalType": "address",
          "name": "to",
          "type": "address"
        },
        {
          "internalType": "uint256",
          "name": "tokenId",
          "type": "uint256"
        }
      ],
      "name": "transferFrom",
      "outputs": [],
      "stateMutability": "nonpayable",
      "type": "function"
    },
    {
      "inputs": [
        {
          "internalType": "string",
          "name": "name",
          "type": "string"
        }
      ],
      "name": "valid",
      "outputs": [
        {
          "internalType": "bool",
          "name": "",
          "type": "bool"
        }
      ],
      "stateMutability": "pure",
      "type": "function"
    },
    {
      "inputs": [],
      "name": "withdraw",
      "outputs": [],
      "stateMutability": "nonpayable",
      "type": "function"
    }
  ],
  "bytecode": "0x6080604052604051806108a0016040528061086b81526020016200555b61086b9139600a908051906020019062000038929190620002c8565b506040518060400160405280600d81526020017f3c2f746578743e3c2f7376673e00000000000000000000000000000000000000815250600b908051906020019062000086929190620002c8565b5060405162005dc638038062005dc68339818101604052810190620000ac919062000515565b6040518060400160405280601281526020017f526f617374204e616d65205365727669636500000000000000000000000000008152506040518060400160405280600581526020017f524f415354000000000000000000000000000000000000000000000000000000815250816000908051906020019062000130929190620002c8565b50806001908051906020019062000149929190620002c8565b50505033600760006101000a81548173ffffffffffffffffffffffffffffffffffffffff021916908373ffffffffffffffffffffffffffffffffffffffff1602179055508060099080519060200190620001a5929190620002c8565b50620001f26040518060400160405280601881526020017f2573206e616d652073657276696365206465706c6f796564000000000000000081525082620001f960201b62001cb31760201c565b5062000663565b6200029b828260405160240162000212929190620005c3565b6040516020818303038152906040527f4b5c4277000000000000000000000000000000000000000000000000000000007bffffffffffffffffffffffffffffffffffffffffffffffffffffffff19166020820180517bffffffffffffffffffffffffffffffffffffffffffffffffffffffff83818316178352505050506200029f60201b60201c565b5050565b60008151905060006a636f6e736f6c652e6c6f679050602083016000808483855afa5050505050565b828054620002d6906200062d565b90600052602060002090601f016020900481019282620002fa576000855562000346565b82601f106200031557805160ff191683800117855562000346565b8280016001018555821562000346579182015b828111156200034557825182559160200191906001019062000328565b5b50905062000355919062000359565b5090565b5b80821115620003745760008160009055506001016200035a565b5090565b6000604051905090565b600080fd5b600080fd5b600080fd5b600080fd5b6000601f19601f8301169050919050565b7f4e487b7100000000000000000000000000000000000000000000000000000000600052604160045260246000fd5b620003e18262000396565b810181811067ffffffffffffffff82111715620004035762000402620003a7565b5b80604052505050565b60006200041862000378565b9050620004268282620003d6565b919050565b600067ffffffffffffffff821115620004495762000448620003a7565b5b620004548262000396565b9050602081019050919050565b60005b838110156200048157808201518184015260208101905062000464565b8381111562000491576000848401525b50505050565b6000620004ae620004a8846200042b565b6200040c565b905082815260208101848484011115620004cd57620004cc62000391565b5b620004da84828562000461565b509392505050565b600082601f830112620004fa57620004f96200038c565b5b81516200050c84826020860162000497565b91505092915050565b6000602082840312156200052e576200052d62000382565b5b600082015167ffffffffffffffff8111156200054f576200054e62000387565b5b6200055d84828501620004e2565b91505092915050565b600081519050919050565b600082825260208201905092915050565b60006200058f8262000566565b6200059b818562000571565b9350620005ad81856020860162000461565b620005b88162000396565b840191505092915050565b60006040820190508181036000830152620005df818562000582565b90508181036020830152620005f5818462000582565b90509392505050565b7f4e487b7100000000000000000000000000000000000000000000000000000000600052602260045260246000fd5b600060028204905060018216806200064657607f821691505b602082108114156200065d576200065c620005fe565b5b50919050565b614ee880620006736000396000f3fe60806040526004361061019c5760003560e01c80636352211e116100ec578063a5cad08a1161008a578063c87b56dd11610064578063c87b56dd14610603578063e985e9c514610640578063fb825e5f1461067d578063fe2c6198146106a85761019c565b8063a5cad08a14610595578063b88d4fde146105b1578063c1880a98146105da5761019c565b80638f32d59b116100c65780638f32d59b146104d957806395d89b41146105045780639791c0971461052f578063a22cb4651461056c5761019c565b80636352211e1461043457806370a08231146104715780638da5cb5b146104ae5761019c565b8063287b04f41161015957806342842e0e1161013357806342842e0e146103545780634622ab031461037d5780634aaf4a12146103ba578063541e771d146103f75761019c565b8063287b04f4146102d55780632d551432146103125780633ccfd60b1461033d5761019c565b806301ffc9a7146101a157806306fdde03146101de578063081812fc14610209578063095ea7b31461024657806311dd88451461026f57806323b872dd146102ac575b600080fd5b3480156101ad57600080fd5b506101c860048036038101906101c39190613237565b6106e5565b6040516101d5919061327f565b60405180910390f35b3480156101ea57600080fd5b506101f36107c7565b6040516102009190613333565b60405180910390f35b34801561021557600080fd5b50610230600480360381019061022b919061338b565b610859565b60405161023d91906133f9565b60405180910390f35b34801561025257600080fd5b5061026d60048036038101906102689190613440565b6108de565b005b34801561027b57600080fd5b50610296600480360381019061029191906134e5565b6109f6565b6040516102a39190613333565b60405180910390f35b3480156102b857600080fd5b506102d360048036038101906102ce9190613532565b610aa9565b005b3480156102e157600080fd5b506102fc60048036038101906102f791906136b5565b610b09565b60405161030991906133f9565b60405180910390f35b34801561031e57600080fd5b50610327610b52565b6040516103349190613333565b60405180910390f35b34801561034957600080fd5b50610352610be0565b005b34801561036057600080fd5b5061037b60048036038101906103769190613532565b610ca6565b005b34801561038957600080fd5b506103a4600480360381019061039f919061338b565b610cc6565b6040516103b19190613333565b60405180910390f35b3480156103c657600080fd5b506103e160048036038101906103dc91906134e5565b610d66565b6040516103ee91906133f9565b60405180910390f35b34801561040357600080fd5b5061041e600480360381019061041991906136b5565b610db1565b60405161042b9190613333565b60405180910390f35b34801561044057600080fd5b5061045b6004803603810190610456919061338b565b610e67565b60405161046891906133f9565b60405180910390f35b34801561047d57600080fd5b50610498600480360381019061049391906136fe565b610f19565b6040516104a5919061373a565b60405180910390f35b3480156104ba57600080fd5b506104c3610fd1565b6040516104d09190613776565b60405180910390f35b3480156104e557600080fd5b506104ee610ff7565b6040516104fb919061327f565b60405180910390f35b34801561051057600080fd5b5061051961104f565b6040516105269190613333565b60405180910390f35b34801561053b57600080fd5b50610556600480360381019061055191906134e5565b6110e1565b604051610563919061327f565b60405180910390f35b34801561057857600080fd5b50610593600480360381019061058e91906137bd565b611195565b005b6105af60048036038101906105aa91906134e5565b6111ab565b005b3480156105bd57600080fd5b506105d860048036038101906105d3919061389e565b61170c565b005b3480156105e657600080fd5b5061060160048036038101906105fc9190613921565b61176e565b005b34801561060f57600080fd5b5061062a6004803603810190610625919061338b565b611849565b6040516106379190613333565b60405180910390f35b34801561064c57600080fd5b50610667600480360381019061066291906139a2565b61199b565b604051610674919061327f565b60405180910390f35b34801561068957600080fd5b50610692611a2f565b60405161069f9190613aee565b60405180910390f35b3480156106b457600080fd5b506106cf60048036038101906106ca91906134e5565b611c0d565b6040516106dc919061373a565b60405180910390f35b60007f80ac58cd000000000000000000000000000000000000000000000000000000007bffffffffffffffffffffffffffffffffffffffffffffffffffffffff1916827bffffffffffffffffffffffffffffffffffffffffffffffffffffffff191614806107b057507f5b5e139f000000000000000000000000000000000000000000000000000000007bffffffffffffffffffffffffffffffffffffffffffffffffffffffff1916827bffffffffffffffffffffffffffffffffffffffffffffffffffffffff1916145b806107c057506107bf82611d4f565b5b9050919050565b6060600080546107d690613b3f565b80601f016020809104026020016040519081016040528092919081815260200182805461080290613b3f565b801561084f5780601f106108245761010080835404028352916020019161084f565b820191906000526020600020905b81548152906001019060200180831161083257829003601f168201915b5050505050905090565b600061086482611db9565b6108a3576040517f08c379a000000000000000000000000000000000000000000000000000000000815260040161089a90613be3565b60405180910390fd5b6004600083815260200190815260200160002060009054906101000a900473ffffffffffffffffffffffffffffffffffffffff169050919050565b60006108e982610e67565b90508073ffffffffffffffffffffffffffffffffffffffff168373ffffffffffffffffffffffffffffffffffffffff16141561095a576040517f08c379a000000000000000000000000000000000000000000000000000000000815260040161095190613c75565b60405180910390fd5b8073ffffffffffffffffffffffffffffffffffffffff16610979611e25565b73ffffffffffffffffffffffffffffffffffffffff1614806109a857506109a7816109a2611e25565b61199b565b5b6109e7576040517f08c379a00000000000000000000000000000000000000000000000000000000081526004016109de90613d07565b60405180910390fd5b6109f18383611e2d565b505050565b6060600d8383604051610a0a929190613d57565b90815260200160405180910390208054610a2390613b3f565b80601f0160208091040260200160405190810160405280929190818152602001828054610a4f90613b3f565b8015610a9c5780601f10610a7157610100808354040283529160200191610a9c565b820191906000526020600020905b815481529060010190602001808311610a7f57829003601f168201915b5050505050905092915050565b610aba610ab4611e25565b82611ee6565b610af9576040517f08c379a0000000000000000000000000000000000000000000000000000000008152600401610af090613de2565b60405180910390fd5b610b04838383611fc4565b505050565b600c818051602081018201805184825260208301602085012081835280955050505050506000915054906101000a900473ffffffffffffffffffffffffffffffffffffffff1681565b60098054610b5f90613b3f565b80601f0160208091040260200160405190810160405280929190818152602001828054610b8b90613b3f565b8015610bd85780601f10610bad57610100808354040283529160200191610bd8565b820191906000526020600020905b815481529060010190602001808311610bbb57829003601f168201915b505050505081565b610be8610ff7565b610bf157600080fd5b600047905060003373ffffffffffffffffffffffffffffffffffffffff1682604051610c1c90613e33565b60006040518083038185875af1925050503d8060008114610c59576040519150601f19603f3d011682016040523d82523d6000602084013e610c5e565b606091505b5050905080610ca2576040517f08c379a0000000000000000000000000000000000000000000000000000000008152600401610c9990613e94565b60405180910390fd5b5050565b610cc18383836040518060200160405280600081525061170c565b505050565b600e6020528060005260406000206000915090508054610ce590613b3f565b80601f0160208091040260200160405190810160405280929190818152602001828054610d1190613b3f565b8015610d5e5780601f10610d3357610100808354040283529160200191610d5e565b820191906000526020600020905b815481529060010190602001808311610d4157829003601f168201915b505050505081565b6000600c8383604051610d7a929190613d57565b908152602001604051809103902060009054906101000a900473ffffffffffffffffffffffffffffffffffffffff16905092915050565b600d818051602081018201805184825260208301602085012081835280955050505050506000915090508054610de690613b3f565b80601f0160208091040260200160405190810160405280929190818152602001828054610e1290613b3f565b8015610e5f5780601f10610e3457610100808354040283529160200191610e5f565b820191906000526020600020905b815481529060010190602001808311610e4257829003601f168201915b505050505081565b6000806002600084815260200190815260200160002060009054906101000a900473ffffffffffffffffffffffffffffffffffffffff169050600073ffffffffffffffffffffffffffffffffffffffff168173ffffffffffffffffffffffffffffffffffffffff161415610f10576040517f08c379a0000000000000000000000000000000000000000000000000000000008152600401610f0790613f26565b60405180910390fd5b80915050919050565b60008073ffffffffffffffffffffffffffffffffffffffff168273ffffffffffffffffffffffffffffffffffffffff161415610f8a576040517f08c379a0000000000000000000000000000000000000000000000000000000008152600401610f8190613fb8565b60405180910390fd5b600360008373ffffffffffffffffffffffffffffffffffffffff1673ffffffffffffffffffffffffffffffffffffffff168152602001908152602001600020549050919050565b600760009054906101000a900473ffffffffffffffffffffffffffffffffffffffff1681565b6000600760009054906101000a900473ffffffffffffffffffffffffffffffffffffffff1673ffffffffffffffffffffffffffffffffffffffff163373ffffffffffffffffffffffffffffffffffffffff1614905090565b60606001805461105e90613b3f565b80601f016020809104026020016040519081016040528092919081815260200182805461108a90613b3f565b80156110d75780601f106110ac576101008083540402835291602001916110d7565b820191906000526020600020905b8154815290600101906020018083116110ba57829003601f168201915b5050505050905090565b6000600361113284848080601f016020809104026020016040519081016040528093929190818152602001838380828437600081840152601f19601f8201169050808301925050505050505061222b565b1015801561118d5750600a61118a84848080601f016020809104026020016040519081016040528093929190818152602001838380828437600081840152601f19601f8201169050808301925050505050505061222b565b11155b905092915050565b6111a76111a0611e25565b83836123e0565b5050565b600073ffffffffffffffffffffffffffffffffffffffff16600c83836040516111d5929190613d57565b908152602001604051809103902060009054906101000a900473ffffffffffffffffffffffffffffffffffffffff1673ffffffffffffffffffffffffffffffffffffffff1614611251576040517f3a81d6fc00000000000000000000000000000000000000000000000000000000815260040160405180910390fd5b61125b82826110e1565b61129e5781816040517f7f19f48d000000000000000000000000000000000000000000000000000000008152600401611295929190614005565b60405180910390fd5b60006112aa8383611c0d565b9050803410156112ef576040517f08c379a00000000000000000000000000000000000000000000000000000000081526004016112e690614075565b60405180910390fd5b60008383600960405160200161130793929190614175565b60405160208183030381529060405290506000600a82600b604051602001611331939291906141d7565b6040516020818303038152906040529050600061134e600861254d565b9050600061139f87878080601f016020809104026020016040519081016040528093929190818152602001838380828437600081840152601f19601f8201169050808301925050505050505061222b565b905060006113ac8261255b565b90506114a0604051806060016040528060318152602001614e096031913989898080601f016020809104026020016040519081016040528093929190818152602001838380828437600081840152601f19601f820116905080830192505050505050506009805461141c90613b3f565b80601f016020809104026020016040519081016040528092919081815260200182805461144890613b3f565b80156114955780601f1061146a57610100808354040283529160200191611495565b820191906000526020600020905b81548152906001019060200180831161147857829003601f168201915b5050505050866126bc565b60006114d6866114af8761275e565b846040516020016114c293929190614384565b60405160208183030381529060405261275e565b90506000816040516020016114eb919061442d565b604051602081830303815290604052905061151d604051806060016040528060398152602001614dd0603991396128f6565b61155c6040518060400160405280600e81526020017f46696e616c20746f6b656e55524900000000000000000000000000000000000081525082611cb3565b61157d604051806060016040528060398152602001614e3a603991396128f6565b611587338661298f565b61159185826129ad565b33600c8b8b6040516115a4929190613d57565b908152602001604051809103902060006101000a81548173ffffffffffffffffffffffffffffffffffffffff021916908373ffffffffffffffffffffffffffffffffffffffff1602179055508989600e600088815260200190815260200160002091906116129291906130a2565b5061161d6008612a21565b33600c8b8b604051611630929190613d57565b908152602001604051809103902060006101000a81548173ffffffffffffffffffffffffffffffffffffffff021916908373ffffffffffffffffffffffffffffffffffffffff1602179055506117006040518060400160405280601f81526020017f25732068617320726567697374657265642074686520646f6d61696e20257300815250338c8c8080601f016020809104026020016040519081016040528093929190818152602001838380828437600081840152601f19601f82011690508083019250505050505050612a37565b50505050505050505050565b61171d611717611e25565b83611ee6565b61175c576040517f08c379a000000000000000000000000000000000000000000000000000000000815260040161175390613de2565b60405180910390fd5b61176884848484612ad6565b50505050565b600c8484604051611780929190613d57565b908152602001604051809103902060009054906101000a900473ffffffffffffffffffffffffffffffffffffffff1673ffffffffffffffffffffffffffffffffffffffff163373ffffffffffffffffffffffffffffffffffffffff1614611813576040517f82b4290000000000000000000000000000000000000000000000000000000000815260040160405180910390fd5b8181600d8686604051611827929190613d57565b908152602001604051809103902091906118429291906130a2565b5050505050565b606061185482611db9565b611893576040517f08c379a000000000000000000000000000000000000000000000000000000000815260040161188a906144c1565b60405180910390fd5b60006006600084815260200190815260200160002080546118b390613b3f565b80601f01602080910402602001604051908101604052809291908181526020018280546118df90613b3f565b801561192c5780601f106119015761010080835404028352916020019161192c565b820191906000526020600020905b81548152906001019060200180831161190f57829003601f168201915b50505050509050600061193d612b32565b9050600081511415611953578192505050611996565b6000825111156119885780826040516020016119709291906144e1565b60405160208183030381529060405292505050611996565b61199184612b49565b925050505b919050565b6000600560008473ffffffffffffffffffffffffffffffffffffffff1673ffffffffffffffffffffffffffffffffffffffff16815260200190815260200160002060008373ffffffffffffffffffffffffffffffffffffffff1673ffffffffffffffffffffffffffffffffffffffff16815260200190815260200160002060009054906101000a900460ff16905092915050565b6060611a6f6040518060400160405280601f81526020017f47657474696e6720616c6c206e616d65732066726f6d20636f6e7472616374008152506128f6565b6000611a7b600861254d565b67ffffffffffffffff811115611a9457611a9361358a565b5b604051908082528060200260200182016040528015611ac757816020015b6060815260200190600190039081611ab25790505b50905060005b611ad7600861254d565b811015611c0557600e60008281526020019081526020016000208054611afc90613b3f565b80601f0160208091040260200160405190810160405280929190818152602001828054611b2890613b3f565b8015611b755780601f10611b4a57610100808354040283529160200191611b75565b820191906000526020600020905b815481529060010190602001808311611b5857829003601f168201915b5050505050828281518110611b8d57611b8c614505565b5b6020026020010181905250611bf26040518060400160405280601781526020017f4e616d6520666f7220746f6b656e20256420697320257300000000000000000081525082848481518110611be557611be4614505565b5b6020026020010151612bf0565b8080611bfd90614563565b915050611acd565b508091505090565b600080611c5d84848080601f016020809104026020016040519081016040528093929190818152602001838380828437600081840152601f19601f8201169050808301925050505050505061222b565b905060008111611c6c57600080fd5b6003811415611c86576706f05b59d3b20000915050611cad565b6004811415611ca057670429d069189e0000915050611cad565b67016345785d8a00009150505b92915050565b611d4b8282604051602401611cc99291906145ac565b6040516020818303038152906040527f4b5c4277000000000000000000000000000000000000000000000000000000007bffffffffffffffffffffffffffffffffffffffffffffffffffffffff19166020820180517bffffffffffffffffffffffffffffffffffffffffffffffffffffffff8381831617835250505050612c8f565b5050565b60007f01ffc9a7000000000000000000000000000000000000000000000000000000007bffffffffffffffffffffffffffffffffffffffffffffffffffffffff1916827bffffffffffffffffffffffffffffffffffffffffffffffffffffffff1916149050919050565b60008073ffffffffffffffffffffffffffffffffffffffff166002600084815260200190815260200160002060009054906101000a900473ffffffffffffffffffffffffffffffffffffffff1673ffffffffffffffffffffffffffffffffffffffff1614159050919050565b600033905090565b816004600083815260200190815260200160002060006101000a81548173ffffffffffffffffffffffffffffffffffffffff021916908373ffffffffffffffffffffffffffffffffffffffff160217905550808273ffffffffffffffffffffffffffffffffffffffff16611ea083610e67565b73ffffffffffffffffffffffffffffffffffffffff167f8c5be1e5ebec7d5bd14f71427d1e84f3dd0314c0f7b2291e5b200ac8c7c3b92560405160405180910390a45050565b6000611ef182611db9565b611f30576040517f08c379a0000000000000000000000000000000000000000000000000000000008152600401611f2790614655565b60405180910390fd5b6000611f3b83610e67565b90508073ffffffffffffffffffffffffffffffffffffffff168473ffffffffffffffffffffffffffffffffffffffff161480611f7d5750611f7c818561199b565b5b80611fbb57508373ffffffffffffffffffffffffffffffffffffffff16611fa384610859565b73ffffffffffffffffffffffffffffffffffffffff16145b91505092915050565b8273ffffffffffffffffffffffffffffffffffffffff16611fe482610e67565b73ffffffffffffffffffffffffffffffffffffffff161461203a576040517f08c379a0000000000000000000000000000000000000000000000000000000008152600401612031906146e7565b60405180910390fd5b600073ffffffffffffffffffffffffffffffffffffffff168273ffffffffffffffffffffffffffffffffffffffff1614156120aa576040517f08c379a00000000000000000000000000000000000000000000000000000000081526004016120a190614779565b60405180910390fd5b6120b5838383612cb8565b6120c0600082611e2d565b6001600360008573ffffffffffffffffffffffffffffffffffffffff1673ffffffffffffffffffffffffffffffffffffffff16815260200190815260200160002060008282546121109190614799565b925050819055506001600360008473ffffffffffffffffffffffffffffffffffffffff1673ffffffffffffffffffffffffffffffffffffffff168152602001908152602001600020600082825461216791906147cd565b92505081905550816002600083815260200190815260200160002060006101000a81548173ffffffffffffffffffffffffffffffffffffffff021916908373ffffffffffffffffffffffffffffffffffffffff160217905550808273ffffffffffffffffffffffffffffffffffffffff168473ffffffffffffffffffffffffffffffffffffffff167fddf252ad1be2c89b69c2b068fc378daa952ba7f163c4a11628f55a4df523b3ef60405160405180910390a4612226838383612cbd565b505050565b60008060008084519050600092505b808210156123d557600085838151811061225757612256614505565b5b602001015160f81c60f81b9050608060f81b817effffffffffffffffffffffffffffffffffffffffffffffffffffffffffffff191610156122a65760018361229f91906147cd565b92506123c1565b60e060f81b817effffffffffffffffffffffffffffffffffffffffffffffffffffffffffffff191610156122e8576002836122e191906147cd565b92506123c0565b60f060f81b817effffffffffffffffffffffffffffffffffffffffffffffffffffffffffffff1916101561232a5760038361232391906147cd565b92506123bf565b60f8801b817effffffffffffffffffffffffffffffffffffffffffffffffffffffffffffff1916101561236b5760048361236491906147cd565b92506123be565b60fc60f81b817effffffffffffffffffffffffffffffffffffffffffffffffffffffffffffff191610156123ad576005836123a691906147cd565b92506123bd565b6006836123ba91906147cd565b92505b5b5b5b5b5082806123cd90614563565b93505061223a565b829350505050919050565b8173ffffffffffffffffffffffffffffffffffffffff168373ffffffffffffffffffffffffffffffffffffffff16141561244f576040517f08c379a00000000000000000000000000000000000000000000000000000000081526004016124469061486f565b60405180910390fd5b80600560008573ffffffffffffffffffffffffffffffffffffffff1673ffffffffffffffffffffffffffffffffffffffff16815260200190815260200160002060008473ffffffffffffffffffffffffffffffffffffffff1673ffffffffffffffffffffffffffffffffffffffff16815260200190815260200160002060006101000a81548160ff0219169083151502179055508173ffffffffffffffffffffffffffffffffffffffff168373ffffffffffffffffffffffffffffffffffffffff167f17307eab39ab6107e8899845ad3d59bd9653f200f220920489ca2b5937696c3183604051612540919061327f565b60405180910390a3505050565b600081600001549050919050565b606060008214156125a3576040518060400160405280600181526020017f300000000000000000000000000000000000000000000000000000000000000081525090506126b7565b600082905060005b600082146125d55780806125be90614563565b915050600a826125ce91906148be565b91506125ab565b60008167ffffffffffffffff8111156125f1576125f061358a565b5b6040519080825280601f01601f1916602001820160405280156126235781602001600182028036833780820191505090505b5090505b600085146126b05760018261263c9190614799565b9150600a8561264b91906148ef565b603061265791906147cd565b60f81b81838151811061266d5761266c614505565b5b60200101907effffffffffffffffffffffffffffffffffffffffffffffffffffffffffffff1916908160001a905350600a856126a991906148be565b9450612627565b8093505050505b919050565b612758848484846040516024016126d69493929190614920565b6040516020818303038152906040527f9fd009f5000000000000000000000000000000000000000000000000000000007bffffffffffffffffffffffffffffffffffffffffffffffffffffffff19166020820180517bffffffffffffffffffffffffffffffffffffffffffffffffffffffff8381831617835250505050612c8f565b50505050565b6060600082519050600081141561278757604051806020016040528060008152509150506128f1565b6000600360028361279891906147cd565b6127a291906148be565b60046127ae919061497a565b905060006020826127bf91906147cd565b67ffffffffffffffff8111156127d8576127d761358a565b5b6040519080825280601f01601f19166020018201604052801561280a5781602001600182028036833780820191505090505b5090506000604051806060016040528060408152602001614e73604091399050600181016020830160005b868110156128ae5760038101905062ffffff818a015116603f8160121c168401518060081b905060ff603f83600c1c1686015116810190508060081b905060ff603f8360061c1686015116810190508060081b905060ff603f831686015116810190508060e01b90508084526004840193505050612835565b5060038606600181146128c857600281146128d8576128e3565b613d3d60f01b60028303526128e3565b603d60f81b60018303525b508484525050819450505050505b919050565b61298c8160405160240161290a9190613333565b6040516020818303038152906040527f41304fac000000000000000000000000000000000000000000000000000000007bffffffffffffffffffffffffffffffffffffffffffffffffffffffff19166020820180517bffffffffffffffffffffffffffffffffffffffffffffffffffffffff8381831617835250505050612c8f565b50565b6129a9828260405180602001604052806000815250612cc2565b5050565b6129b682611db9565b6129f5576040517f08c379a00000000000000000000000000000000000000000000000000000000081526004016129ec90614a46565b60405180910390fd5b80600660008481526020019081526020016000209080519060200190612a1c929190613128565b505050565b6001816000016000828254019250508190555050565b612ad1838383604051602401612a4f93929190614a66565b6040516020818303038152906040527fe0e9ad4f000000000000000000000000000000000000000000000000000000007bffffffffffffffffffffffffffffffffffffffffffffffffffffffff19166020820180517bffffffffffffffffffffffffffffffffffffffffffffffffffffffff8381831617835250505050612c8f565b505050565b612ae1848484611fc4565b612aed84848484612d1d565b612b2c576040517f08c379a0000000000000000000000000000000000000000000000000000000008152600401612b2390614b1d565b60405180910390fd5b50505050565b606060405180602001604052806000815250905090565b6060612b5482611db9565b612b93576040517f08c379a0000000000000000000000000000000000000000000000000000000008152600401612b8a90614baf565b60405180910390fd5b6000612b9d612b32565b90506000815111612bbd5760405180602001604052806000815250612be8565b80612bc78461255b565b604051602001612bd89291906144e1565b6040516020818303038152906040525b915050919050565b612c8a838383604051602401612c0893929190614bcf565b6040516020818303038152906040527fa3f5c739000000000000000000000000000000000000000000000000000000007bffffffffffffffffffffffffffffffffffffffffffffffffffffffff19166020820180517bffffffffffffffffffffffffffffffffffffffffffffffffffffffff8381831617835250505050612c8f565b505050565b60008151905060006a636f6e736f6c652e6c6f679050602083016000808483855afa5050505050565b505050565b505050565b612ccc8383612ea5565b612cd96000848484612d1d565b612d18576040517f08c379a0000000000000000000000000000000000000000000000000000000008152600401612d0f90614b1d565b60405180910390fd5b505050565b6000612d3e8473ffffffffffffffffffffffffffffffffffffffff1661307f565b15612e98578373ffffffffffffffffffffffffffffffffffffffff1663150b7a02612d67611e25565b8786866040518563ffffffff1660e01b8152600401612d899493929190614c69565b6020604051808303816000875af1925050508015612dc557506040513d601f19601f82011682018060405250810190612dc29190614cca565b60015b612e48573d8060008114612df5576040519150601f19603f3d011682016040523d82523d6000602084013e612dfa565b606091505b50600081511415612e40576040517f08c379a0000000000000000000000000000000000000000000000000000000008152600401612e3790614b1d565b60405180910390fd5b805181602001fd5b63150b7a0260e01b7bffffffffffffffffffffffffffffffffffffffffffffffffffffffff1916817bffffffffffffffffffffffffffffffffffffffffffffffffffffffff191614915050612e9d565b600190505b949350505050565b600073ffffffffffffffffffffffffffffffffffffffff168273ffffffffffffffffffffffffffffffffffffffff161415612f15576040517f08c379a0000000000000000000000000000000000000000000000000000000008152600401612f0c90614d43565b60405180910390fd5b612f1e81611db9565b15612f5e576040517f08c379a0000000000000000000000000000000000000000000000000000000008152600401612f5590614daf565b60405180910390fd5b612f6a60008383612cb8565b6001600360008473ffffffffffffffffffffffffffffffffffffffff1673ffffffffffffffffffffffffffffffffffffffff1681526020019081526020016000206000828254612fba91906147cd565b92505081905550816002600083815260200190815260200160002060006101000a81548173ffffffffffffffffffffffffffffffffffffffff021916908373ffffffffffffffffffffffffffffffffffffffff160217905550808273ffffffffffffffffffffffffffffffffffffffff16600073ffffffffffffffffffffffffffffffffffffffff167fddf252ad1be2c89b69c2b068fc378daa952ba7f163c4a11628f55a4df523b3ef60405160405180910390a461307b60008383612cbd565b5050565b6000808273ffffffffffffffffffffffffffffffffffffffff163b119050919050565b8280546130ae90613b3f565b90600052602060002090601f0160209004810192826130d05760008555613117565b82601f106130e957803560ff1916838001178555613117565b82800160010185558215613117579182015b828111156131165782358255916020019190600101906130fb565b5b50905061312491906131ae565b5090565b82805461313490613b3f565b90600052602060002090601f016020900481019282613156576000855561319d565b82601f1061316f57805160ff191683800117855561319d565b8280016001018555821561319d579182015b8281111561319c578251825591602001919060010190613181565b5b5090506131aa91906131ae565b5090565b5b808211156131c75760008160009055506001016131af565b5090565b6000604051905090565b600080fd5b600080fd5b60007fffffffff0000000000000000000000000000000000000000000000000000000082169050919050565b613214816131df565b811461321f57600080fd5b50565b6000813590506132318161320b565b92915050565b60006020828403121561324d5761324c6131d5565b5b600061325b84828501613222565b91505092915050565b60008115159050919050565b61327981613264565b82525050565b60006020820190506132946000830184613270565b92915050565b600081519050919050565b600082825260208201905092915050565b60005b838110156132d45780820151818401526020810190506132b9565b838111156132e3576000848401525b50505050565b6000601f19601f8301169050919050565b60006133058261329a565b61330f81856132a5565b935061331f8185602086016132b6565b613328816132e9565b840191505092915050565b6000602082019050818103600083015261334d81846132fa565b905092915050565b6000819050919050565b61336881613355565b811461337357600080fd5b50565b6000813590506133858161335f565b92915050565b6000602082840312156133a1576133a06131d5565b5b60006133af84828501613376565b91505092915050565b600073ffffffffffffffffffffffffffffffffffffffff82169050919050565b60006133e3826133b8565b9050919050565b6133f3816133d8565b82525050565b600060208201905061340e60008301846133ea565b92915050565b61341d816133d8565b811461342857600080fd5b50565b60008135905061343a81613414565b92915050565b60008060408385031215613457576134566131d5565b5b60006134658582860161342b565b925050602061347685828601613376565b9150509250929050565b600080fd5b600080fd5b600080fd5b60008083601f8401126134a5576134a4613480565b5b8235905067ffffffffffffffff8111156134c2576134c1613485565b5b6020830191508360018202830111156134de576134dd61348a565b5b9250929050565b600080602083850312156134fc576134fb6131d5565b5b600083013567ffffffffffffffff81111561351a576135196131da565b5b6135268582860161348f565b92509250509250929050565b60008060006060848603121561354b5761354a6131d5565b5b60006135598682870161342b565b935050602061356a8682870161342b565b925050604061357b86828701613376565b9150509250925092565b600080fd5b7f4e487b7100000000000000000000000000000000000000000000000000000000600052604160045260246000fd5b6135c2826132e9565b810181811067ffffffffffffffff821117156135e1576135e061358a565b5b80604052505050565b60006135f46131cb565b905061360082826135b9565b919050565b600067ffffffffffffffff8211156136205761361f61358a565b5b613629826132e9565b9050602081019050919050565b82818337600083830152505050565b600061365861365384613605565b6135ea565b90508281526020810184848401111561367457613673613585565b5b61367f848285613636565b509392505050565b600082601f83011261369c5761369b613480565b5b81356136ac848260208601613645565b91505092915050565b6000602082840312156136cb576136ca6131d5565b5b600082013567ffffffffffffffff8111156136e9576136e86131da565b5b6136f584828501613687565b91505092915050565b600060208284031215613714576137136131d5565b5b60006137228482850161342b565b91505092915050565b61373481613355565b82525050565b600060208201905061374f600083018461372b565b92915050565b6000613760826133b8565b9050919050565b61377081613755565b82525050565b600060208201905061378b6000830184613767565b92915050565b61379a81613264565b81146137a557600080fd5b50565b6000813590506137b781613791565b92915050565b600080604083850312156137d4576137d36131d5565b5b60006137e28582860161342b565b92505060206137f3858286016137a8565b9150509250929050565b600067ffffffffffffffff8211156138185761381761358a565b5b613821826132e9565b9050602081019050919050565b600061384161383c846137fd565b6135ea565b90508281526020810184848401111561385d5761385c613585565b5b613868848285613636565b509392505050565b600082601f83011261388557613884613480565b5b813561389584826020860161382e565b91505092915050565b600080600080608085870312156138b8576138b76131d5565b5b60006138c68782880161342b565b94505060206138d78782880161342b565b93505060406138e887828801613376565b925050606085013567ffffffffffffffff811115613909576139086131da565b5b61391587828801613870565b91505092959194509250565b6000806000806040858703121561393b5761393a6131d5565b5b600085013567ffffffffffffffff811115613959576139586131da565b5b6139658782880161348f565b9450945050602085013567ffffffffffffffff811115613988576139876131da565b5b6139948782880161348f565b925092505092959194509250565b600080604083850312156139b9576139b86131d5565b5b60006139c78582860161342b565b92505060206139d88582860161342b565b9150509250929050565b600081519050919050565b600082825260208201905092915050565b6000819050602082019050919050565b600082825260208201905092915050565b6000613a2a8261329a565b613a348185613a0e565b9350613a448185602086016132b6565b613a4d816132e9565b840191505092915050565b6000613a648383613a1f565b905092915050565b6000602082019050919050565b6000613a84826139e2565b613a8e81856139ed565b935083602082028501613aa0856139fe565b8060005b85811015613adc5784840389528151613abd8582613a58565b9450613ac883613a6c565b925060208a01995050600181019050613aa4565b50829750879550505050505092915050565b60006020820190508181036000830152613b088184613a79565b905092915050565b7f4e487b7100000000000000000000000000000000000000000000000000000000600052602260045260246000fd5b60006002820490506001821680613b5757607f821691505b60208210811415613b6b57613b6a613b10565b5b50919050565b7f4552433732313a20617070726f76656420717565727920666f72206e6f6e657860008201527f697374656e7420746f6b656e0000000000000000000000000000000000000000602082015250565b6000613bcd602c836132a5565b9150613bd882613b71565b604082019050919050565b60006020820190508181036000830152613bfc81613bc0565b9050919050565b7f4552433732313a20617070726f76616c20746f2063757272656e74206f776e6560008201527f7200000000000000000000000000000000000000000000000000000000000000602082015250565b6000613c5f6021836132a5565b9150613c6a82613c03565b604082019050919050565b60006020820190508181036000830152613c8e81613c52565b9050919050565b7f4552433732313a20617070726f76652063616c6c6572206973206e6f74206f7760008201527f6e6572206e6f7220617070726f76656420666f7220616c6c0000000000000000602082015250565b6000613cf16038836132a5565b9150613cfc82613c95565b604082019050919050565b60006020820190508181036000830152613d2081613ce4565b9050919050565b600081905092915050565b6000613d3e8385613d27565b9350613d4b838584613636565b82840190509392505050565b6000613d64828486613d32565b91508190509392505050565b7f4552433732313a207472616e736665722063616c6c6572206973206e6f74206f60008201527f776e6572206e6f7220617070726f766564000000000000000000000000000000602082015250565b6000613dcc6031836132a5565b9150613dd782613d70565b604082019050919050565b60006020820190508181036000830152613dfb81613dbf565b9050919050565b600081905092915050565b50565b6000613e1d600083613e02565b9150613e2882613e0d565b600082019050919050565b6000613e3e82613e10565b9150819050919050565b7f4661696c656420746f207769746864726177204d617469630000000000000000600082015250565b6000613e7e6018836132a5565b9150613e8982613e48565b602082019050919050565b60006020820190508181036000830152613ead81613e71565b9050919050565b7f4552433732313a206f776e657220717565727920666f72206e6f6e657869737460008201527f656e7420746f6b656e0000000000000000000000000000000000000000000000602082015250565b6000613f106029836132a5565b9150613f1b82613eb4565b604082019050919050565b60006020820190508181036000830152613f3f81613f03565b9050919050565b7f4552433732313a2062616c616e636520717565727920666f7220746865207a6560008201527f726f206164647265737300000000000000000000000000000000000000000000602082015250565b6000613fa2602a836132a5565b9150613fad82613f46565b604082019050919050565b60006020820190508181036000830152613fd181613f95565b9050919050565b6000613fe483856132a5565b9350613ff1838584613636565b613ffa836132e9565b840190509392505050565b60006020820190508181036000830152614020818486613fd8565b90509392505050565b7f4e6f7420656e6f756768204d6174696320706169640000000000000000000000600082015250565b600061405f6015836132a5565b915061406a82614029565b602082019050919050565b6000602082019050818103600083015261408e81614052565b9050919050565b7f2e00000000000000000000000000000000000000000000000000000000000000600082015250565b60006140cb600183613d27565b91506140d682614095565b600182019050919050565b60008190508160005260206000209050919050565b6000815461410381613b3f565b61410d8186613d27565b9450600182166000811461412857600181146141395761416c565b60ff1983168652818601935061416c565b614142856140e1565b60005b8381101561416457815481890152600182019150602081019050614145565b838801955050505b50505092915050565b6000614182828587613d32565b915061418d826140be565b915061419982846140f6565b9150819050949350505050565b60006141b18261329a565b6141bb8185613d27565b93506141cb8185602086016132b6565b80840191505092915050565b60006141e382866140f6565b91506141ef82856141a6565b91506141fb82846140f6565b9150819050949350505050565b7f7b226e616d65223a202200000000000000000000000000000000000000000000600082015250565b600061423e600a83613d27565b915061424982614208565b600a82019050919050565b7f222c20226465736372697074696f6e223a20224120646f6d61696e206f6e207460008201527f6865204e696e6a61206e616d652073657276696365222c2022696d616765223a60208201527f2022646174613a696d6167652f7376672b786d6c3b6261736536342c00000000604082015250565b60006142d6605c83613d27565b91506142e182614254565b605c82019050919050565b7f222c226c656e677468223a220000000000000000000000000000000000000000600082015250565b6000614322600c83613d27565b915061432d826142ec565b600c82019050919050565b7f227d000000000000000000000000000000000000000000000000000000000000600082015250565b600061436e600283613d27565b915061437982614338565b600282019050919050565b600061438f82614231565b915061439b82866141a6565b91506143a6826142c9565b91506143b282856141a6565b91506143bd82614315565b91506143c982846141a6565b91506143d482614361565b9150819050949350505050565b7f646174613a6170706c69636174696f6e2f6a736f6e3b6261736536342c000000600082015250565b6000614417601d83613d27565b9150614422826143e1565b601d82019050919050565b60006144388261440a565b915061444482846141a6565b915081905092915050565b7f45524337323155524953746f726167653a2055524920717565727920666f722060008201527f6e6f6e6578697374656e7420746f6b656e000000000000000000000000000000602082015250565b60006144ab6031836132a5565b91506144b68261444f565b604082019050919050565b600060208201905081810360008301526144da8161449e565b9050919050565b60006144ed82856141a6565b91506144f982846141a6565b91508190509392505050565b7f4e487b7100000000000000000000000000000000000000000000000000000000600052603260045260246000fd5b7f4e487b7100000000000000000000000000000000000000000000000000000000600052601160045260246000fd5b600061456e82613355565b91507fffffffffffffffffffffffffffffffffffffffffffffffffffffffffffffffff8214156145a1576145a0614534565b5b600182019050919050565b600060408201905081810360008301526145c681856132fa565b905081810360208301526145da81846132fa565b90509392505050565b7f4552433732313a206f70657261746f7220717565727920666f72206e6f6e657860008201527f697374656e7420746f6b656e0000000000000000000000000000000000000000602082015250565b600061463f602c836132a5565b915061464a826145e3565b604082019050919050565b6000602082019050818103600083015261466e81614632565b9050919050565b7f4552433732313a207472616e736665722066726f6d20696e636f72726563742060008201527f6f776e6572000000000000000000000000000000000000000000000000000000602082015250565b60006146d16025836132a5565b91506146dc82614675565b604082019050919050565b60006020820190508181036000830152614700816146c4565b9050919050565b7f4552433732313a207472616e7366657220746f20746865207a65726f2061646460008201527f7265737300000000000000000000000000000000000000000000000000000000602082015250565b60006147636024836132a5565b915061476e82614707565b604082019050919050565b6000602082019050818103600083015261479281614756565b9050919050565b60006147a482613355565b91506147af83613355565b9250828210156147c2576147c1614534565b5b828203905092915050565b60006147d882613355565b91506147e383613355565b9250827fffffffffffffffffffffffffffffffffffffffffffffffffffffffffffffffff0382111561481857614817614534565b5b828201905092915050565b7f4552433732313a20617070726f766520746f2063616c6c657200000000000000600082015250565b60006148596019836132a5565b915061486482614823565b602082019050919050565b600060208201905081810360008301526148888161484c565b9050919050565b7f4e487b7100000000000000000000000000000000000000000000000000000000600052601260045260246000fd5b60006148c982613355565b91506148d483613355565b9250826148e4576148e361488f565b5b828204905092915050565b60006148fa82613355565b915061490583613355565b9250826149155761491461488f565b5b828206905092915050565b6000608082019050818103600083015261493a81876132fa565b9050818103602083015261494e81866132fa565b9050818103604083015261496281856132fa565b9050614971606083018461372b565b95945050505050565b600061498582613355565b915061499083613355565b9250817fffffffffffffffffffffffffffffffffffffffffffffffffffffffffffffffff04831182151516156149c9576149c8614534565b5b828202905092915050565b7f45524337323155524953746f726167653a2055524920736574206f66206e6f6e60008201527f6578697374656e7420746f6b656e000000000000000000000000000000000000602082015250565b6000614a30602e836132a5565b9150614a3b826149d4565b604082019050919050565b60006020820190508181036000830152614a5f81614a23565b9050919050565b60006060820190508181036000830152614a8081866132fa565b9050614a8f60208301856133ea565b8181036040830152614aa181846132fa565b9050949350505050565b7f4552433732313a207472616e7366657220746f206e6f6e20455243373231526560008201527f63656976657220696d706c656d656e7465720000000000000000000000000000602082015250565b6000614b076032836132a5565b9150614b1282614aab565b604082019050919050565b60006020820190508181036000830152614b3681614afa565b9050919050565b7f4552433732314d657461646174613a2055524920717565727920666f72206e6f60008201527f6e6578697374656e7420746f6b656e0000000000000000000000000000000000602082015250565b6000614b99602f836132a5565b9150614ba482614b3d565b604082019050919050565b60006020820190508181036000830152614bc881614b8c565b9050919050565b60006060820190508181036000830152614be981866132fa565b9050614bf8602083018561372b565b8181036040830152614c0a81846132fa565b9050949350505050565b600081519050919050565b600082825260208201905092915050565b6000614c3b82614c14565b614c458185614c1f565b9350614c558185602086016132b6565b614c5e816132e9565b840191505092915050565b6000608082019050614c7e60008301876133ea565b614c8b60208301866133ea565b614c98604083018561372b565b8181036060830152614caa8184614c30565b905095945050505050565b600081519050614cc48161320b565b92915050565b600060208284031215614ce057614cdf6131d5565b5b6000614cee84828501614cb5565b91505092915050565b7f4552433732313a206d696e7420746f20746865207a65726f2061646472657373600082015250565b6000614d2d6020836132a5565b9150614d3882614cf7565b602082019050919050565b60006020820190508181036000830152614d5c81614d20565b9050919050565b7f4552433732313a20746f6b656e20616c7265616479206d696e74656400000000600082015250565b6000614d99601c836132a5565b9150614da482614d63565b602082019050919050565b60006020820190508181036000830152614dc881614d8c565b905091905056fe0a2d2d2d2d2d2d2d2d2d2d2d2d2d2d2d2d2d2d2d2d2d2d2d2d2d2d2d2d2d2d2d2d2d2d2d2d2d2d2d2d2d2d2d2d2d2d2d2d2d2d2d2d2d2d2d2d5265676973746572696e672025732e2573206f6e2074686520636f6e7472616374207769746820746f6b656e49442025642d2d2d2d2d2d2d2d2d2d2d2d2d2d2d2d2d2d2d2d2d2d2d2d2d2d2d2d2d2d2d2d2d2d2d2d2d2d2d2d2d2d2d2d2d2d2d2d2d2d2d2d2d2d2d2d0a4142434445464748494a4b4c4d4e4f505152535455565758595a6162636465666768696a6b6c6d6e6f707172737475767778797a303132333435363738392b2fa2646970667358221220d8e689bd52a581e58c01f714d928fa89d4649d7f98b53f9419a8bf45b17d974164736f6c634300080a00333c73766720786d6c6e733d22687474703a2f2f7777772e77332e6f72672f323030302f737667222077696474683d2232373022206865696768743d22323730222066696c6c3d226e6f6e65223e3c706174682066696c6c3d2275726c282342292220643d224d302030683237307632373048307a222f3e3c646566733e3c66696c7465722069643d22412220636f6c6f722d696e746572706f6c6174696f6e2d66696c746572733d2273524742222066696c746572556e6974733d227573657253706163654f6e55736522206865696768743d22323730222077696474683d22323730223e3c666544726f70536861646f772064783d2230222064793d22312220737464446576696174696f6e3d22322220666c6f6f642d6f7061636974793d222e323235222077696474683d223230302522206865696768743d2232303025222f3e3c2f66696c7465723e3c2f646566733e3c7061746820643d224d37322e3836332034322e393439632d2e3636382d2e3338372d312e3432362d2e35392d322e3139372d2e3539732d312e3532392e3230342d322e3139372e35396c2d31302e30383120362e3033322d362e383520332e3933342d31302e30383120362e303332632d2e3636382e3338372d312e3432362e35392d322e3139372e3539732d312e3532392d2e3230342d322e3139372d2e35396c2d382e3031332d342e37323161342e353220342e35322030203020312d312e3538392d312e363136632d2e3338342d2e3636352d2e3539342d312e3431382d2e3630382d322e313837762d392e3331632d2e3031332d2e3737352e3138352d312e3533382e3537322d322e32303861342e323520342e323520302030203120312e3632352d312e3539356c372e3838342d342e3539632e3636382d2e33383720312e3432362d2e353920322e3139372d2e353973312e3532392e32303420322e3139372e35396c372e38383420342e353961342e353220342e353220302030203120312e35383920312e363136632e3338342e3636352e35393420312e3431382e36303820322e31383776362e3033326c362e38352d342e303635762d362e303332632e3031332d2e3737352d2e3138352d312e3533382d2e3537322d322e32303861342e323520342e32352030203020302d312e3632352d312e3539354c34312e3435362032342e3539632d2e3636382d2e3338372d312e3432362d2e35392d322e3139372d2e3539732d312e3532392e3230342d322e3139372e35396c2d31342e38363420382e36353561342e323520342e32352030203020302d312e36323520312e353935632d2e3338372e36372d2e35383520312e3433342d2e35373220322e3230387631372e343431632d2e3031332e3737352e31383520312e3533382e35373220322e32303861342e323520342e323520302030203020312e36323520312e3539356c31342e38363420382e363535632e3636382e33383720312e3432362e353920322e3139372e353973312e3532392d2e32303420322e3139372d2e35396c31302e3038312d352e39303120362e38352d342e3036352031302e3038312d352e393031632e3636382d2e33383720312e3432362d2e353920322e3139372d2e353973312e3532392e32303420322e3139372e35396c372e38383420342e353961342e353220342e353220302030203120312e35383920312e363136632e3338342e3636352e35393420312e3431382e36303820322e31383776392e333131632e3031332e3737352d2e31383520312e3533382d2e35373220322e32303861342e323520342e32352030203020312d312e36323520312e3539356c2d372e38383420342e373231632d2e3636382e3338372d312e3432362e35392d322e3139372e3539732d312e3532392d2e3230342d322e3139372d2e35396c2d372e3838342d342e353961342e353220342e35322030203020312d312e3538392d312e363136632d2e3338352d2e3636352d2e3539342d312e3431382d2e3630382d322e313837762d362e3033326c2d362e383520342e30363576362e303332632d2e3031332e3737352e31383520312e3533382e35373220322e32303861342e323520342e323520302030203020312e36323520312e3539356c31342e38363420382e363535632e3636382e33383720312e3432362e353920322e3139372e353973312e3532392d2e32303420322e3139372d2e35396c31342e3836342d382e363535632e3635372d2e33393420312e3230342d2e393520312e3538392d312e363136732e3539342d312e3431382e3630392d322e3138375635352e353338632e3031332d2e3737352d2e3138352d312e3533382d2e3537322d322e32303861342e323520342e32352030203020302d312e3632352d312e3539356c2d31342e3939332d382e3738367a222066696c6c3d2223666666222f3e3c646566733e3c6c696e6561724772616469656e742069643d2242222078313d2230222079313d2230222078323d22323730222079323d2232373022206772616469656e74556e6974733d227573657253706163654f6e557365223e3c73746f702073746f702d636f6c6f723d2223636235656565222f3e3c73746f70206f66667365743d2231222073746f702d636f6c6f723d2223306364376534222073746f702d6f7061636974793d222e3939222f3e3c2f6c696e6561724772616469656e743e3c2f646566733e3c7465787420783d2233322e352220793d223233312220666f6e742d73697a653d223237222066696c6c3d2223666666222066696c7465723d2275726c282341292220666f6e742d66616d696c793d22506c7573204a616b617274612053616e732c44656a6156752053616e732c4e6f746f20436f6c6f7220456d6f6a692c4170706c6520436f6c6f7220456d6f6a692c73616e732d73657269662220666f6e742d7765696768743d22626f6c64223e",
  "linkReferences": {},
  "deployedLinkReferences": {}
}